{
  "contractName": "ForwardAuction",
  "abi": [
    {
      "inputs": [
        {
          "internalType": "uint256",
          "name": "_biddingTime",
          "type": "uint256"
        },
        {
          "internalType": "address payable",
          "name": "_beneficiary",
          "type": "address"
        },
        {
          "internalType": "contract IERC20",
          "name": "_tokenAddress",
          "type": "address"
        },
        {
          "internalType": "uint256",
          "name": "_prize",
          "type": "uint256"
        }
      ],
      "stateMutability": "nonpayable",
      "type": "constructor"
    },
    {
      "anonymous": false,
      "inputs": [
        {
          "indexed": false,
          "internalType": "address",
          "name": "bidder",
          "type": "address"
        },
        {
          "indexed": false,
          "internalType": "uint256",
          "name": "bid",
          "type": "uint256"
        }
      ],
      "name": "HighestBidIncrease",
      "type": "event"
    },
    {
      "inputs": [],
      "name": "auctionEndTime",
      "outputs": [
        {
          "internalType": "uint256",
          "name": "",
          "type": "uint256"
        }
      ],
      "stateMutability": "view",
      "type": "function",
      "constant": true
    },
    {
      "inputs": [],
      "name": "beneficiary",
      "outputs": [
        {
          "internalType": "address",
          "name": "",
          "type": "address"
        }
      ],
      "stateMutability": "view",
      "type": "function",
      "constant": true
    },
    {
      "inputs": [
        {
          "internalType": "address",
          "name": "",
          "type": "address"
        }
      ],
      "name": "currentAddressBid",
      "outputs": [
        {
          "internalType": "uint256",
          "name": "",
          "type": "uint256"
        }
      ],
      "stateMutability": "view",
      "type": "function",
      "constant": true
    },
    {
      "inputs": [],
      "name": "highestBid",
      "outputs": [
        {
          "internalType": "uint256",
          "name": "",
          "type": "uint256"
        }
      ],
      "stateMutability": "view",
      "type": "function",
      "constant": true
    },
    {
      "inputs": [],
      "name": "highestBidder",
      "outputs": [
        {
          "internalType": "address",
          "name": "",
          "type": "address"
        }
      ],
      "stateMutability": "view",
      "type": "function",
      "constant": true
    },
    {
      "inputs": [],
      "name": "token",
      "outputs": [
        {
          "internalType": "contract IERC20",
          "name": "",
          "type": "address"
        }
      ],
      "stateMutability": "view",
      "type": "function",
      "constant": true
    },
    {
      "stateMutability": "payable",
      "type": "receive",
      "payable": true
    },
    {
      "inputs": [],
      "name": "returnAuctionEndTime",
      "outputs": [
        {
          "internalType": "uint256",
          "name": "",
          "type": "uint256"
        }
      ],
      "stateMutability": "view",
      "type": "function",
      "constant": true
    },
    {
      "inputs": [
        {
          "internalType": "uint256",
          "name": "_bid",
          "type": "uint256"
        }
      ],
      "name": "submitBid",
      "outputs": [],
      "stateMutability": "nonpayable",
      "type": "function"
    },
    {
      "inputs": [],
      "name": "payWinner",
      "outputs": [],
      "stateMutability": "nonpayable",
      "type": "function"
    }
  ],
  "bytecode": "0x60806040523480156200001157600080fd5b506040516200139338038062001393833981810160405281019062000037919062000122565b82600160006101000a81548173ffffffffffffffffffffffffffffffffffffffff021916908373ffffffffffffffffffffffffffffffffffffffff16021790555083426200008691906200018e565b600281905550816000806101000a81548173ffffffffffffffffffffffffffffffffffffffff021916908373ffffffffffffffffffffffffffffffffffffffff1602179055508060038190555050505050620002ce565b600081519050620000ee8162000280565b92915050565b60008151905062000105816200029a565b92915050565b6000815190506200011c81620002b4565b92915050565b600080600080608085870312156200013957600080fd5b600062000149878288016200010b565b94505060206200015c87828801620000dd565b93505060406200016f87828801620000f4565b925050606062000182878288016200010b565b91505092959194509250565b60006200019b8262000247565b9150620001a88362000247565b9250827fffffffffffffffffffffffffffffffffffffffffffffffffffffffffffffffff03821115620001e057620001df62000251565b5b828201905092915050565b6000620001f88262000227565b9050919050565b60006200020c8262000227565b9050919050565b60006200022082620001eb565b9050919050565b600073ffffffffffffffffffffffffffffffffffffffff82169050919050565b6000819050919050565b7f4e487b7100000000000000000000000000000000000000000000000000000000600052601160045260246000fd5b6200028b81620001ff565b81146200029757600080fd5b50565b620002a58162000213565b8114620002b157600080fd5b50565b620002bf8162000247565b8114620002cb57600080fd5b50565b6110b580620002de6000396000f3fe60806040526004361061008a5760003560e01c806391f901571161005957806391f90157146101525780639e75a9fd1461017d578063be71248a146101a8578063d57bde79146101bf578063fc0c546a146101ea57610091565b80630f1755e01461009657806338af3eed146100d35780634b449cba146100fe57806374bdda151461012957610091565b3661009157005b600080fd5b3480156100a257600080fd5b506100bd60048036038101906100b89190610c16565b610215565b6040516100ca9190610ee9565b60405180910390f35b3480156100df57600080fd5b506100e861022d565b6040516100f59190610df3565b60405180910390f35b34801561010a57600080fd5b50610113610253565b6040516101209190610ee9565b60405180910390f35b34801561013557600080fd5b50610150600480360381019061014b9190610c68565b610259565b005b34801561015e57600080fd5b50610167610801565b6040516101749190610df3565b60405180910390f35b34801561018957600080fd5b50610192610827565b60405161019f9190610ee9565b60405180910390f35b3480156101b457600080fd5b506101bd610831565b005b3480156101cb57600080fd5b506101d4610b98565b6040516101e19190610ee9565b60405180910390f35b3480156101f657600080fd5b506101ff610b9e565b60405161020c9190610e6e565b60405180910390f35b60066020528060005260406000206000915090505481565b600160009054906101000a900473ffffffffffffffffffffffffffffffffffffffff1681565b60025481565b600254421061029d576040517f08c379a000000000000000000000000000000000000000000000000000000000815260040161029490610ec9565b60405180910390fd5b60055481116102e1576040517f08c379a00000000000000000000000000000000000000000000000000000000081526004016102d890610e89565b60405180910390fd5b600460009054906101000a900473ffffffffffffffffffffffffffffffffffffffff1673ffffffffffffffffffffffffffffffffffffffff163373ffffffffffffffffffffffffffffffffffffffff161415610372576040517f08c379a000000000000000000000000000000000000000000000000000000000815260040161036990610ea9565b60405180910390fd5b60008054906101000a900473ffffffffffffffffffffffffffffffffffffffff1673ffffffffffffffffffffffffffffffffffffffff166323b872dd3330846040518463ffffffff1660e01b81526004016103cf93929190610e0e565b602060405180830381600087803b1580156103e957600080fd5b505af11580156103fd573d6000803e3d6000fd5b505050506040513d601f19601f820116820180604052508101906104219190610c3f565b5080600660003373ffffffffffffffffffffffffffffffffffffffff1673ffffffffffffffffffffffffffffffffffffffff16815260200190815260200160002081905550600060055411156105be5760008054906101000a900473ffffffffffffffffffffffffffffffffffffffff1673ffffffffffffffffffffffffffffffffffffffff1663a9059cbb600460009054906101000a900473ffffffffffffffffffffffffffffffffffffffff166005546040518363ffffffff1660e01b81526004016104f0929190610e45565b602060405180830381600087803b15801561050a57600080fd5b505af115801561051e573d6000803e3d6000fd5b505050506040513d601f19601f820116820180604052508101906105429190610c3f565b5060055460066000600460009054906101000a900473ffffffffffffffffffffffffffffffffffffffff1673ffffffffffffffffffffffffffffffffffffffff1673ffffffffffffffffffffffffffffffffffffffff16815260200190815260200160002060008282546105b69190610f6b565b925050819055505b600060066000600460009054906101000a900473ffffffffffffffffffffffffffffffffffffffff1673ffffffffffffffffffffffffffffffffffffffff1673ffffffffffffffffffffffffffffffffffffffff1681526020019081526020016000205414610656577f4e487b7100000000000000000000000000000000000000000000000000000000600052600160045260246000fd5b8060058190555033600460006101000a81548173ffffffffffffffffffffffffffffffffffffffff021916908373ffffffffffffffffffffffffffffffffffffffff1602179055506003546005546106ae9190610f15565b60008054906101000a900473ffffffffffffffffffffffffffffffffffffffff1673ffffffffffffffffffffffffffffffffffffffff166370a08231306040518263ffffffff1660e01b81526004016107079190610df3565b60206040518083038186803b15801561071f57600080fd5b505afa158015610733573d6000803e3d6000fd5b505050506040513d601f19601f820116820180604052508101906107579190610c91565b1461078b577f4e487b7100000000000000000000000000000000000000000000000000000000600052600160045260246000fd5b7fdfea07ab8527bd08519bfa633240757a7bb0a7f3c7adc98e30604ba73c70f42933826040516107bc929190610e45565b60405180910390a1601e426002546107d49190610f6b565b10156107fe57601e600260008282546107ed9190610f15565b925050819055506107fc610827565b505b50565b600460009054906101000a900473ffffffffffffffffffffffffffffffffffffffff1681565b6000600254905090565b600460009054906101000a900473ffffffffffffffffffffffffffffffffffffffff1673ffffffffffffffffffffffffffffffffffffffff163373ffffffffffffffffffffffffffffffffffffffff161461088b57600080fd5b60035460055461089b9190610f15565b60008054906101000a900473ffffffffffffffffffffffffffffffffffffffff1673ffffffffffffffffffffffffffffffffffffffff166370a08231306040518263ffffffff1660e01b81526004016108f49190610df3565b60206040518083038186803b15801561090c57600080fd5b505afa158015610920573d6000803e3d6000fd5b505050506040513d601f19601f820116820180604052508101906109449190610c91565b14610978577f4e487b7100000000000000000000000000000000000000000000000000000000600052600160045260246000fd5b60008054906101000a900473ffffffffffffffffffffffffffffffffffffffff1673ffffffffffffffffffffffffffffffffffffffff1663a9059cbb600160009054906101000a900473ffffffffffffffffffffffffffffffffffffffff166005546040518363ffffffff1660e01b81526004016109f7929190610e45565b602060405180830381600087803b158015610a1157600080fd5b505af1158015610a25573d6000803e3d6000fd5b505050506040513d601f19601f82011682018060405250810190610a499190610c3f565b5060055460066000600460009054906101000a900473ffffffffffffffffffffffffffffffffffffffff1673ffffffffffffffffffffffffffffffffffffffff1673ffffffffffffffffffffffffffffffffffffffff1681526020019081526020016000206000828254610abd9190610f6b565b9250508190555060008054906101000a900473ffffffffffffffffffffffffffffffffffffffff1673ffffffffffffffffffffffffffffffffffffffff1663a9059cbb600460009054906101000a900473ffffffffffffffffffffffffffffffffffffffff166003546040518363ffffffff1660e01b8152600401610b43929190610e45565b602060405180830381600087803b158015610b5d57600080fd5b505af1158015610b71573d6000803e3d6000fd5b505050506040513d601f19601f82011682018060405250810190610b959190610c3f565b50565b60055481565b60008054906101000a900473ffffffffffffffffffffffffffffffffffffffff1681565b600081359050610bd18161103a565b92915050565b600081519050610be681611051565b92915050565b600081359050610bfb81611068565b92915050565b600081519050610c1081611068565b92915050565b600060208284031215610c2857600080fd5b6000610c3684828501610bc2565b91505092915050565b600060208284031215610c5157600080fd5b6000610c5f84828501610bd7565b91505092915050565b600060208284031215610c7a57600080fd5b6000610c8884828501610bec565b91505092915050565b600060208284031215610ca357600080fd5b6000610cb184828501610c01565b91505092915050565b610cc381610f9f565b82525050565b610cd281610fe7565b82525050565b6000610ce5602b83610f04565b91507f426964206d75737420626520686967686572207468616e2063757272656e742060008301527f68696768657374206269640000000000000000000000000000000000000000006020830152604082019050919050565b6000610d4b602283610f04565b91507f596f752061726520616c7265616479207468652068696768657374206269646460008301527f65720000000000000000000000000000000000000000000000000000000000006020830152604082019050919050565b6000610db1601183610f04565b91507f41756374696f6e2068617320656e6465640000000000000000000000000000006000830152602082019050919050565b610ded81610fdd565b82525050565b6000602082019050610e086000830184610cba565b92915050565b6000606082019050610e236000830186610cba565b610e306020830185610cba565b610e3d6040830184610de4565b949350505050565b6000604082019050610e5a6000830185610cba565b610e676020830184610de4565b9392505050565b6000602082019050610e836000830184610cc9565b92915050565b60006020820190508181036000830152610ea281610cd8565b9050919050565b60006020820190508181036000830152610ec281610d3e565b9050919050565b60006020820190508181036000830152610ee281610da4565b9050919050565b6000602082019050610efe6000830184610de4565b92915050565b600082825260208201905092915050565b6000610f2082610fdd565b9150610f2b83610fdd565b9250827fffffffffffffffffffffffffffffffffffffffffffffffffffffffffffffffff03821115610f6057610f5f61100b565b5b828201905092915050565b6000610f7682610fdd565b9150610f8183610fdd565b925082821015610f9457610f9361100b565b5b828203905092915050565b6000610faa82610fbd565b9050919050565b60008115159050919050565b600073ffffffffffffffffffffffffffffffffffffffff82169050919050565b6000819050919050565b6000610ff282610ff9565b9050919050565b600061100482610fbd565b9050919050565b7f4e487b7100000000000000000000000000000000000000000000000000000000600052601160045260246000fd5b61104381610f9f565b811461104e57600080fd5b50565b61105a81610fb1565b811461106557600080fd5b50565b61107181610fdd565b811461107c57600080fd5b5056fea264697066735822122086dd384f354151508a844fe0cd570a036d22687bdebfb12ea7af38061bd1ed1564736f6c63430008000033",
  "immutableReferences": {},
  "source": "//SPDX-License-Identifier: MIT\r\n\r\npragma solidity ^0.8.0;\r\n\r\nimport \"./MyToken.sol\";\r\n\r\ncontract ForwardAuction {\r\n\r\n    IERC20 public token;\r\n\r\n    // Auction Parameters\r\n    address public beneficiary;\r\n    uint public auctionEndTime;\r\n    uint prize;\r\n\r\n\r\n    // Current state of the auction\r\n    address public highestBidder;\r\n    uint public highestBid;\r\n    \r\n    mapping(address => uint) public currentAddressBid;\r\n        \r\n    event HighestBidIncrease(address bidder, uint bid);\r\n    \r\n    constructor(\r\n        uint _biddingTime,\r\n        address payable _beneficiary,\r\n        IERC20 _tokenAddress,\r\n        uint _prize\r\n        ) \r\n        \r\n        { \r\n            beneficiary = _beneficiary;\r\n            auctionEndTime = block.timestamp + _biddingTime;\r\n            token = _tokenAddress;\r\n            prize = _prize;\r\n\r\n        }\r\n\r\n \r\n    function returnAuctionEndTime() public view returns(uint) {\r\n        return auctionEndTime;\r\n    }\r\n\r\n    function submitBid(uint _bid) public {\r\n        require(block.timestamp < auctionEndTime, \"Auction has ended\");\r\n        require(_bid > highestBid, \"Bid must be higher than current highest bid\");\r\n        require(msg.sender != highestBidder, \"You are already the highest bidder\");\r\n\r\n        token.transferFrom(msg.sender, address(this), _bid); \r\n\r\n\r\n        currentAddressBid[msg.sender] = _bid;\r\n\r\n        if (highestBid > 0) {\r\n            token.transfer(highestBidder,highestBid); \r\n            currentAddressBid[highestBidder] -= highestBid;\r\n            \r\n        }\r\n\r\n        assert(currentAddressBid[highestBidder] == 0);\r\n\r\n        highestBid = _bid;\r\n        highestBidder = msg.sender;\r\n\r\n        assert(token.balanceOf(address(this)) == highestBid + prize);\r\n\r\n        emit HighestBidIncrease(msg.sender,_bid);\r\n\r\n        if ((auctionEndTime - block.timestamp) < 30) {\r\n            auctionEndTime += 30;\r\n            returnAuctionEndTime(); \r\n        }\r\n    }\r\n\r\n\r\n   function payWinner() public {\r\n       require(msg.sender == highestBidder);\r\n       assert(token.balanceOf(address(this)) == highestBid + prize);\r\n       \r\n       token.transfer(beneficiary, highestBid);\r\n\r\n       currentAddressBid[highestBidder] -= highestBid;\r\n       token.transfer(highestBidder, prize);\r\n\r\n   } \r\n     \r\n    receive() external payable {\r\n\r\n    }\r\n\r\n    \r\n\r\n    \r\n}\r\n\r\n",
  "sourcePath": "C:/Users/Owner/ERC20_Project/contracts/ForwardAuction.sol",
  "compiler": {
    "name": "solc",
    "version": "0.8.0+commit.c7dfd78e.Emscripten.clang"
  },
  "schemaVersion": "3.4.1",
  "updatedAt": "2021-09-28T12:35:38.751Z",
  "networkType": "ethereum",
  "devdoc": {
    "kind": "dev",
    "methods": {},
    "version": 1
  },
  "userdoc": {
    "kind": "user",
    "methods": {},
    "version": 1
  }
}