{
  "contractName": "ForwardAuction",
  "abi": [
    {
      "inputs": [
        {
          "internalType": "uint256",
          "name": "_biddingTime",
          "type": "uint256"
        },
        {
          "internalType": "address payable",
          "name": "_beneficiary",
          "type": "address"
        },
        {
          "internalType": "contract IERC20",
          "name": "_tokenAddress",
          "type": "address"
        }
      ],
      "stateMutability": "nonpayable",
      "type": "constructor"
    },
    {
      "anonymous": false,
      "inputs": [
        {
          "indexed": false,
          "internalType": "address",
          "name": "winner",
          "type": "address"
        },
        {
          "indexed": false,
          "internalType": "uint256",
          "name": "amount",
          "type": "uint256"
        }
      ],
      "name": "AuctionEnded",
      "type": "event"
    },
    {
      "anonymous": false,
      "inputs": [
        {
          "indexed": false,
          "internalType": "address",
          "name": "bidder",
          "type": "address"
        },
        {
          "indexed": false,
          "internalType": "uint256",
          "name": "bid",
          "type": "uint256"
        }
      ],
      "name": "HighestBidIncrease",
      "type": "event"
    },
    {
      "inputs": [],
      "name": "beneficiary",
      "outputs": [
        {
          "internalType": "address payable",
          "name": "",
          "type": "address"
        }
      ],
      "stateMutability": "view",
      "type": "function",
      "constant": true
    },
    {
      "inputs": [
        {
          "internalType": "address",
          "name": "",
          "type": "address"
        }
      ],
      "name": "currentAddressBid",
      "outputs": [
        {
          "internalType": "uint256",
          "name": "",
          "type": "uint256"
        }
      ],
      "stateMutability": "view",
      "type": "function",
      "constant": true
    },
    {
      "inputs": [],
      "name": "highestBid",
      "outputs": [
        {
          "internalType": "uint256",
          "name": "",
          "type": "uint256"
        }
      ],
      "stateMutability": "view",
      "type": "function",
      "constant": true
    },
    {
      "inputs": [],
      "name": "highestBidder",
      "outputs": [
        {
          "internalType": "address",
          "name": "",
          "type": "address"
        }
      ],
      "stateMutability": "view",
      "type": "function",
      "constant": true
    },
    {
      "inputs": [],
      "name": "returnHighestBid",
      "outputs": [
        {
          "internalType": "uint256",
          "name": "",
          "type": "uint256"
        }
      ],
      "stateMutability": "view",
      "type": "function",
      "constant": true
    },
    {
      "inputs": [
        {
          "internalType": "uint256",
          "name": "_bid",
          "type": "uint256"
        }
      ],
      "name": "submitBid",
      "outputs": [],
      "stateMutability": "nonpayable",
      "type": "function"
    }
  ],
  "bytecode": "0x60806040526000600660006101000a81548160ff0219169083151502179055503480156200002c57600080fd5b5060405162000a7538038062000a75833981810160405281019062000052919062000135565b81600160006101000a81548173ffffffffffffffffffffffffffffffffffffffff021916908373ffffffffffffffffffffffffffffffffffffffff1602179055508242620000a191906200018b565b600281905550806000806101000a81548173ffffffffffffffffffffffffffffffffffffffff021916908373ffffffffffffffffffffffffffffffffffffffff160217905550505050620002cb565b60008151905062000101816200027d565b92915050565b600081519050620001188162000297565b92915050565b6000815190506200012f81620002b1565b92915050565b6000806000606084860312156200014b57600080fd5b60006200015b868287016200011e565b93505060206200016e86828701620000f0565b9250506040620001818682870162000107565b9150509250925092565b6000620001988262000244565b9150620001a58362000244565b9250827fffffffffffffffffffffffffffffffffffffffffffffffffffffffffffffffff03821115620001dd57620001dc6200024e565b5b828201905092915050565b6000620001f58262000224565b9050919050565b6000620002098262000224565b9050919050565b60006200021d82620001e8565b9050919050565b600073ffffffffffffffffffffffffffffffffffffffff82169050919050565b6000819050919050565b7f4e487b7100000000000000000000000000000000000000000000000000000000600052601160045260246000fd5b6200028881620001fc565b81146200029457600080fd5b50565b620002a28162000210565b8114620002ae57600080fd5b50565b620002bc8162000244565b8114620002c857600080fd5b50565b61079a80620002db6000396000f3fe608060405234801561001057600080fd5b50600436106100625760003560e01c8063090dd2f6146100675780630f1755e01461008557806338af3eed146100b557806374bdda15146100d357806391f90157146100ef578063d57bde791461010d575b600080fd5b61006f61012b565b60405161007c9190610614565b60405180910390f35b61009f600480360381019061009a91906103f0565b610135565b6040516100ac9190610614565b60405180910390f35b6100bd61014d565b6040516100ca9190610559565b60405180910390f35b6100ed60048036038101906100e89190610442565b610173565b005b6100f7610385565b604051610104919061053e565b60405180910390f35b6101156103ab565b6040516101229190610614565b60405180910390f35b6000600454905090565b60056020528060005260406000206000915090505481565b600160009054906101000a900473ffffffffffffffffffffffffffffffffffffffff1681565b60025442106101b7576040517f08c379a00000000000000000000000000000000000000000000000000000000081526004016101ae906105f4565b60405180910390fd5b60045481116101fb576040517f08c379a00000000000000000000000000000000000000000000000000000000081526004016101f2906105d4565b60405180910390fd5b60008054906101000a900473ffffffffffffffffffffffffffffffffffffffff1673ffffffffffffffffffffffffffffffffffffffff166323b872dd3330846040518463ffffffff1660e01b815260040161025893929190610574565b602060405180830381600087803b15801561027257600080fd5b505af1158015610286573d6000803e3d6000fd5b505050506040513d601f19601f820116820180604052508101906102aa9190610419565b5080600560003373ffffffffffffffffffffffffffffffffffffffff1673ffffffffffffffffffffffffffffffffffffffff16815260200190815260200160002060008282546102fa9190610640565b925050819055508060048190555033600360006101000a81548173ffffffffffffffffffffffffffffffffffffffff021916908373ffffffffffffffffffffffffffffffffffffffff1602179055507fdfea07ab8527bd08519bfa633240757a7bb0a7f3c7adc98e30604ba73c70f429338260405161037a9291906105ab565b60405180910390a150565b600360009054906101000a900473ffffffffffffffffffffffffffffffffffffffff1681565b60045481565b6000813590506103c08161071f565b92915050565b6000815190506103d581610736565b92915050565b6000813590506103ea8161074d565b92915050565b60006020828403121561040257600080fd5b6000610410848285016103b1565b91505092915050565b60006020828403121561042b57600080fd5b6000610439848285016103c6565b91505092915050565b60006020828403121561045457600080fd5b6000610462848285016103db565b91505092915050565b610474816106a8565b82525050565b61048381610696565b82525050565b6000610496602b8361062f565b91507f426964206d75737420626520686967686572207468616e2063757272656e742060008301527f68696768657374206269640000000000000000000000000000000000000000006020830152604082019050919050565b60006104fc60118361062f565b91507f41756374696f6e2068617320656e6465640000000000000000000000000000006000830152602082019050919050565b610538816106e6565b82525050565b6000602082019050610553600083018461047a565b92915050565b600060208201905061056e600083018461046b565b92915050565b6000606082019050610589600083018661047a565b610596602083018561047a565b6105a3604083018461052f565b949350505050565b60006040820190506105c0600083018561047a565b6105cd602083018461052f565b9392505050565b600060208201905081810360008301526105ed81610489565b9050919050565b6000602082019050818103600083015261060d816104ef565b9050919050565b6000602082019050610629600083018461052f565b92915050565b600082825260208201905092915050565b600061064b826106e6565b9150610656836106e6565b9250827fffffffffffffffffffffffffffffffffffffffffffffffffffffffffffffffff0382111561068b5761068a6106f0565b5b828201905092915050565b60006106a1826106c6565b9050919050565b60006106b3826106c6565b9050919050565b60008115159050919050565b600073ffffffffffffffffffffffffffffffffffffffff82169050919050565b6000819050919050565b7f4e487b7100000000000000000000000000000000000000000000000000000000600052601160045260246000fd5b61072881610696565b811461073357600080fd5b50565b61073f816106ba565b811461074a57600080fd5b50565b610756816106e6565b811461076157600080fd5b5056fea26469706673582212209caec31ca3b3ef3648d5d4f5dcfcec9d015de2c5b8652338246075508c74965c64736f6c63430008000033",
  "immutableReferences": {},
  "source": "//SPDX-License-Identifier: MIT\r\n\r\npragma solidity ^0.8.0;\r\n\r\nimport \"./MyToken.sol\";\r\n\r\ncontract ForwardAuction {\r\n\r\n    IERC20 token;\r\n\r\n    // Auction Parameters\r\n    address payable public  beneficiary;\r\n    uint auctionEndTime;\r\n    \r\n    // Current state of the auction\r\n    address public highestBidder;\r\n    uint public highestBid;\r\n    \r\n    mapping(address => uint) public currentAddressBid;\r\n    \r\n    bool ended = false;\r\n    \r\n    event HighestBidIncrease(address bidder, uint bid);\r\n    event AuctionEnded(address winner, uint amount);\r\n    \r\n    constructor(\r\n        uint _biddingTime,\r\n        address payable _beneficiary,\r\n        IERC20 _tokenAddress\r\n        ) \r\n        \r\n        { \r\n            beneficiary = _beneficiary;\r\n            auctionEndTime = block.timestamp + _biddingTime;\r\n            token = _tokenAddress;\r\n            \r\n        }\r\n\r\n    function returnHighestBid() public view returns(uint) {\r\n        return highestBid;\r\n    }\r\n    \r\n\r\n    function submitBid(uint _bid) public {\r\n        require(block.timestamp < auctionEndTime, \"Auction has ended\");\r\n        require(_bid > highestBid, \"Bid must be higher than current highest bid\");\r\n        \r\n        token.transferFrom(msg.sender, address(this), _bid); \r\n\r\n        \r\n        currentAddressBid[msg.sender] += _bid;\r\n        \r\n        highestBid = _bid;\r\n        highestBidder = msg.sender;\r\n        \r\n        emit HighestBidIncrease(msg.sender,_bid);\r\n\r\n        \r\n    \r\n    }\r\n\r\n   \r\n         \r\n\r\n    \r\n}\r\n\r\n",
  "sourcePath": "C:/Users/Owner/ERC20_Project/contracts/ForwardAuction.sol",
  "compiler": {
    "name": "solc",
    "version": "0.8.0+commit.c7dfd78e.Emscripten.clang"
  },
  "schemaVersion": "3.4.1",
  "updatedAt": "2021-08-24T17:29:25.008Z",
  "networkType": "ethereum",
  "devdoc": {
    "kind": "dev",
    "methods": {},
    "version": 1
  },
  "userdoc": {
    "kind": "user",
    "methods": {},
    "version": 1
  }
}